{
  "_format": "hh-sol-artifact-1",
  "contractName": "TestERC20",
  "sourceName": "contracts/mock/TestERC20.sol",
  "abi": [
    {
      "inputs": [
        {
          "internalType": "string",
          "name": "name",
          "type": "string"
        },
        {
          "internalType": "string",
          "name": "symbol",
          "type": "string"
        },
        {
          "internalType": "uint256",
          "name": "initialSupply",
          "type": "uint256"
        }
      ],
      "stateMutability": "nonpayable",
      "type": "constructor"
    },
    {
      "inputs": [
        {
          "internalType": "address",
          "name": "spender",
          "type": "address"
        },
        {
          "internalType": "uint256",
          "name": "allowance",
          "type": "uint256"
        },
        {
          "internalType": "uint256",
          "name": "needed",
          "type": "uint256"
        }
      ],
      "name": "ERC20InsufficientAllowance",
      "type": "error"
    },
    {
      "inputs": [
        {
          "internalType": "address",
          "name": "sender",
          "type": "address"
        },
        {
          "internalType": "uint256",
          "name": "balance",
          "type": "uint256"
        },
        {
          "internalType": "uint256",
          "name": "needed",
          "type": "uint256"
        }
      ],
      "name": "ERC20InsufficientBalance",
      "type": "error"
    },
    {
      "inputs": [
        {
          "internalType": "address",
          "name": "approver",
          "type": "address"
        }
      ],
      "name": "ERC20InvalidApprover",
      "type": "error"
    },
    {
      "inputs": [
        {
          "internalType": "address",
          "name": "receiver",
          "type": "address"
        }
      ],
      "name": "ERC20InvalidReceiver",
      "type": "error"
    },
    {
      "inputs": [
        {
          "internalType": "address",
          "name": "sender",
          "type": "address"
        }
      ],
      "name": "ERC20InvalidSender",
      "type": "error"
    },
    {
      "inputs": [
        {
          "internalType": "address",
          "name": "spender",
          "type": "address"
        }
      ],
      "name": "ERC20InvalidSpender",
      "type": "error"
    },
    {
      "anonymous": false,
      "inputs": [
        {
          "indexed": true,
          "internalType": "address",
          "name": "owner",
          "type": "address"
        },
        {
          "indexed": true,
          "internalType": "address",
          "name": "spender",
          "type": "address"
        },
        {
          "indexed": false,
          "internalType": "uint256",
          "name": "value",
          "type": "uint256"
        }
      ],
      "name": "Approval",
      "type": "event"
    },
    {
      "anonymous": false,
      "inputs": [
        {
          "indexed": true,
          "internalType": "address",
          "name": "from",
          "type": "address"
        },
        {
          "indexed": true,
          "internalType": "address",
          "name": "to",
          "type": "address"
        },
        {
          "indexed": false,
          "internalType": "uint256",
          "name": "value",
          "type": "uint256"
        }
      ],
      "name": "Transfer",
      "type": "event"
    },
    {
      "inputs": [
        {
          "internalType": "address",
          "name": "owner",
          "type": "address"
        },
        {
          "internalType": "address",
          "name": "spender",
          "type": "address"
        },
        {
          "internalType": "uint256",
          "name": "amount",
          "type": "uint256"
        }
      ],
      "name": "$_approve",
      "outputs": [],
      "stateMutability": "nonpayable",
      "type": "function"
    },
    {
      "inputs": [
        {
          "internalType": "address",
          "name": "from",
          "type": "address"
        },
        {
          "internalType": "uint256",
          "name": "amount",
          "type": "uint256"
        }
      ],
      "name": "$_burn",
      "outputs": [],
      "stateMutability": "nonpayable",
      "type": "function"
    },
    {
      "inputs": [
        {
          "internalType": "address",
          "name": "to",
          "type": "address"
        },
        {
          "internalType": "uint256",
          "name": "amount",
          "type": "uint256"
        }
      ],
      "name": "$_mint",
      "outputs": [],
      "stateMutability": "nonpayable",
      "type": "function"
    },
    {
      "inputs": [
        {
          "internalType": "address",
          "name": "from",
          "type": "address"
        },
        {
          "internalType": "address",
          "name": "to",
          "type": "address"
        },
        {
          "internalType": "uint256",
          "name": "amount",
          "type": "uint256"
        }
      ],
      "name": "$_transfer",
      "outputs": [],
      "stateMutability": "nonpayable",
      "type": "function"
    },
    {
      "inputs": [
        {
          "internalType": "address",
          "name": "from",
          "type": "address"
        },
        {
          "internalType": "address",
          "name": "to",
          "type": "address"
        },
        {
          "internalType": "uint256",
          "name": "amount",
          "type": "uint256"
        }
      ],
      "name": "$_update",
      "outputs": [],
      "stateMutability": "nonpayable",
      "type": "function"
    },
    {
      "inputs": [
        {
          "internalType": "address",
          "name": "owner",
          "type": "address"
        },
        {
          "internalType": "address",
          "name": "spender",
          "type": "address"
        }
      ],
      "name": "allowance",
      "outputs": [
        {
          "internalType": "uint256",
          "name": "",
          "type": "uint256"
        }
      ],
      "stateMutability": "view",
      "type": "function"
    },
    {
      "inputs": [
        {
          "internalType": "address",
          "name": "spender",
          "type": "address"
        },
        {
          "internalType": "uint256",
          "name": "value",
          "type": "uint256"
        }
      ],
      "name": "approve",
      "outputs": [
        {
          "internalType": "bool",
          "name": "",
          "type": "bool"
        }
      ],
      "stateMutability": "nonpayable",
      "type": "function"
    },
    {
      "inputs": [
        {
          "internalType": "address",
          "name": "account",
          "type": "address"
        }
      ],
      "name": "balanceOf",
      "outputs": [
        {
          "internalType": "uint256",
          "name": "",
          "type": "uint256"
        }
      ],
      "stateMutability": "view",
      "type": "function"
    },
    {
      "inputs": [],
      "name": "decimals",
      "outputs": [
        {
          "internalType": "uint8",
          "name": "",
          "type": "uint8"
        }
      ],
      "stateMutability": "view",
      "type": "function"
    },
    {
      "inputs": [],
      "name": "name",
      "outputs": [
        {
          "internalType": "string",
          "name": "",
          "type": "string"
        }
      ],
      "stateMutability": "view",
      "type": "function"
    },
    {
      "inputs": [],
      "name": "symbol",
      "outputs": [
        {
          "internalType": "string",
          "name": "",
          "type": "string"
        }
      ],
      "stateMutability": "view",
      "type": "function"
    },
    {
      "inputs": [],
      "name": "totalSupply",
      "outputs": [
        {
          "internalType": "uint256",
          "name": "",
          "type": "uint256"
        }
      ],
      "stateMutability": "view",
      "type": "function"
    },
    {
      "inputs": [
        {
          "internalType": "address",
          "name": "to",
          "type": "address"
        },
        {
          "internalType": "uint256",
          "name": "value",
          "type": "uint256"
        }
      ],
      "name": "transfer",
      "outputs": [
        {
          "internalType": "bool",
          "name": "",
          "type": "bool"
        }
      ],
      "stateMutability": "nonpayable",
      "type": "function"
    },
    {
      "inputs": [
        {
          "internalType": "address",
          "name": "from",
          "type": "address"
        },
        {
          "internalType": "address",
          "name": "to",
          "type": "address"
        },
        {
          "internalType": "uint256",
          "name": "value",
          "type": "uint256"
        }
      ],
      "name": "transferFrom",
      "outputs": [
        {
          "internalType": "bool",
          "name": "",
          "type": "bool"
        }
      ],
      "stateMutability": "nonpayable",
      "type": "function"
    }
  ],
  "bytecode": "0x608060405234801561001057600080fd5b506040516119f93803806119f9833981810160405281019061003291906104c9565b82828160009081610043919061076b565b508060019081610053919061076b565b505050610066338261006e60201b60201c565b50505061095d565b600073ffffffffffffffffffffffffffffffffffffffff168273ffffffffffffffffffffffffffffffffffffffff16036100e05760006040517fec442f050000000000000000000000000000000000000000000000000000000081526004016100d7919061087e565b60405180910390fd5b6100f2600083836100f660201b60201c565b5050565b600073ffffffffffffffffffffffffffffffffffffffff168373ffffffffffffffffffffffffffffffffffffffff160361014857806002600082825461013c91906108c8565b9250508190555061021d565b6000600360008573ffffffffffffffffffffffffffffffffffffffff1673ffffffffffffffffffffffffffffffffffffffff168152602001908152602001600020549050818110156101d5578381836040517fe450d38c0000000000000000000000000000000000000000000000000000000081526004016101cc9392919061090b565b60405180910390fd5b818103600360008673ffffffffffffffffffffffffffffffffffffffff1673ffffffffffffffffffffffffffffffffffffffff16815260200190815260200160002081905550505b600073ffffffffffffffffffffffffffffffffffffffff168273ffffffffffffffffffffffffffffffffffffffff160361026657806002600082825403925050819055506102b4565b80600360008473ffffffffffffffffffffffffffffffffffffffff1673ffffffffffffffffffffffffffffffffffffffff168152602001908152602001600020600082825401925050819055505b8173ffffffffffffffffffffffffffffffffffffffff168373ffffffffffffffffffffffffffffffffffffffff167fddf252ad1be2c89b69c2b068fc378daa952ba7f163c4a11628f55a4df523b3ef836040516103119190610942565b60405180910390a3505050565b6000604051905090565b600080fd5b600080fd5b600080fd5b600080fd5b6000601f19601f8301169050919050565b7f4e487b7100000000000000000000000000000000000000000000000000000000600052604160045260246000fd5b6103858261033c565b810181811067ffffffffffffffff821117156103a4576103a361034d565b5b80604052505050565b60006103b761031e565b90506103c3828261037c565b919050565b600067ffffffffffffffff8211156103e3576103e261034d565b5b6103ec8261033c565b9050602081019050919050565b60005b838110156104175780820151818401526020810190506103fc565b60008484015250505050565b6000610436610431846103c8565b6103ad565b90508281526020810184848401111561045257610451610337565b5b61045d8482856103f9565b509392505050565b600082601f83011261047a57610479610332565b5b815161048a848260208601610423565b91505092915050565b6000819050919050565b6104a681610493565b81146104b157600080fd5b50565b6000815190506104c38161049d565b92915050565b6000806000606084860312156104e2576104e1610328565b5b600084015167ffffffffffffffff811115610500576104ff61032d565b5b61050c86828701610465565b935050602084015167ffffffffffffffff81111561052d5761052c61032d565b5b61053986828701610465565b925050604061054a868287016104b4565b9150509250925092565b600081519050919050565b7f4e487b7100000000000000000000000000000000000000000000000000000000600052602260045260246000fd5b600060028204905060018216806105a657607f821691505b6020821081036105b9576105b861055f565b5b50919050565b60008190508160005260206000209050919050565b60006020601f8301049050919050565b600082821b905092915050565b6000600883026106217fffffffffffffffffffffffffffffffffffffffffffffffffffffffffffffffff826105e4565b61062b86836105e4565b95508019841693508086168417925050509392505050565b6000819050919050565b600061066861066361065e84610493565b610643565b610493565b9050919050565b6000819050919050565b6106828361064d565b61069661068e8261066f565b8484546105f1565b825550505050565b600090565b6106ab61069e565b6106b6818484610679565b505050565b5b818110156106da576106cf6000826106a3565b6001810190506106bc565b5050565b601f82111561071f576106f0816105bf565b6106f9846105d4565b81016020851015610708578190505b61071c610714856105d4565b8301826106bb565b50505b505050565b600082821c905092915050565b600061074260001984600802610724565b1980831691505092915050565b600061075b8383610731565b9150826002028217905092915050565b61077482610554565b67ffffffffffffffff81111561078d5761078c61034d565b5b610797825461058e565b6107a28282856106de565b600060209050601f8311600181146107d557600084156107c3578287015190505b6107cd858261074f565b865550610835565b601f1984166107e3866105bf565b60005b8281101561080b578489015182556001820191506020850194506020810190506107e6565b868310156108285784890151610824601f891682610731565b8355505b6001600288020188555050505b505050505050565b600073ffffffffffffffffffffffffffffffffffffffff82169050919050565b60006108688261083d565b9050919050565b6108788161085d565b82525050565b6000602082019050610893600083018461086f565b92915050565b7f4e487b7100000000000000000000000000000000000000000000000000000000600052601160045260246000fd5b60006108d382610493565b91506108de83610493565b92508282019050808211156108f6576108f5610899565b5b92915050565b61090581610493565b82525050565b6000606082019050610920600083018661086f565b61092d60208301856108fc565b61093a60408301846108fc565b949350505050565b600060208201905061095760008301846108fc565b92915050565b61108d8061096c6000396000f3fe608060405234801561001057600080fd5b50600436106100ea5760003560e01c8063861e3d3d1161008c578063cc461d6211610066578063cc461d621461025f578063dd62ed3e1461027b578063e047838d146102ab578063efb43b07146102c7576100ea565b8063861e3d3d146101f557806395d89b4114610211578063a9059cbb1461022f576100ea565b806323b872dd116100c857806323b872dd1461015b578063313ce5671461018b5780636855a178146101a957806370a08231146101c5576100ea565b806306fdde03146100ef578063095ea7b31461010d57806318160ddd1461013d575b600080fd5b6100f76102e3565b6040516101049190610ce1565b60405180910390f35b61012760048036038101906101229190610d9c565b610375565b6040516101349190610df7565b60405180910390f35b610145610398565b6040516101529190610e21565b60405180910390f35b61017560048036038101906101709190610e3c565b6103a2565b6040516101829190610df7565b60405180910390f35b6101936103d1565b6040516101a09190610eab565b60405180910390f35b6101c360048036038101906101be9190610e3c565b6103da565b005b6101df60048036038101906101da9190610ec6565b6103ea565b6040516101ec9190610e21565b60405180910390f35b61020f600480360381019061020a9190610e3c565b610433565b005b610219610443565b6040516102269190610ce1565b60405180910390f35b61024960048036038101906102449190610d9c565b6104d5565b6040516102569190610df7565b60405180910390f35b61027960048036038101906102749190610d9c565b6104f8565b005b61029560048036038101906102909190610ef3565b610506565b6040516102a29190610e21565b60405180910390f35b6102c560048036038101906102c09190610d9c565b61058d565b005b6102e160048036038101906102dc9190610e3c565b61059b565b005b6060600080546102f290610f62565b80601f016020809104026020016040519081016040528092919081815260200182805461031e90610f62565b801561036b5780601f106103405761010080835404028352916020019161036b565b820191906000526020600020905b81548152906001019060200180831161034e57829003601f168201915b5050505050905090565b6000806103806105ab565b905061038d8185856105b3565b600191505092915050565b6000600254905090565b6000806103ad6105ab565b90506103ba8582856105c5565b6103c585858561065a565b60019150509392505050565b60006012905090565b6103e583838361074e565b505050565b6000600360008373ffffffffffffffffffffffffffffffffffffffff1673ffffffffffffffffffffffffffffffffffffffff168152602001908152602001600020549050919050565b61043e8383836105b3565b505050565b60606001805461045290610f62565b80601f016020809104026020016040519081016040528092919081815260200182805461047e90610f62565b80156104cb5780601f106104a0576101008083540402835291602001916104cb565b820191906000526020600020905b8154815290600101906020018083116104ae57829003601f168201915b5050505050905090565b6000806104e06105ab565b90506104ed81858561065a565b600191505092915050565b6105028282610976565b5050565b6000600460008473ffffffffffffffffffffffffffffffffffffffff1673ffffffffffffffffffffffffffffffffffffffff16815260200190815260200160002060008373ffffffffffffffffffffffffffffffffffffffff1673ffffffffffffffffffffffffffffffffffffffff16815260200190815260200160002054905092915050565b61059782826109f8565b5050565b6105a683838361065a565b505050565b600033905090565b6105c08383836001610a7a565b505050565b60006105d18484610506565b90507fffffffffffffffffffffffffffffffffffffffffffffffffffffffffffffffff8110156106545781811015610644578281836040517ffb8f41b200000000000000000000000000000000000000000000000000000000815260040161063b93929190610fa2565b60405180910390fd5b61065384848484036000610a7a565b5b50505050565b600073ffffffffffffffffffffffffffffffffffffffff168373ffffffffffffffffffffffffffffffffffffffff16036106cc5760006040517f96c6fd1e0000000000000000000000000000000000000000000000000000000081526004016106c39190610fd9565b60405180910390fd5b600073ffffffffffffffffffffffffffffffffffffffff168273ffffffffffffffffffffffffffffffffffffffff160361073e5760006040517fec442f050000000000000000000000000000000000000000000000000000000081526004016107359190610fd9565b60405180910390fd5b61074983838361074e565b505050565b600073ffffffffffffffffffffffffffffffffffffffff168373ffffffffffffffffffffffffffffffffffffffff16036107a05780600260008282546107949190611023565b92505081905550610875565b6000600360008573ffffffffffffffffffffffffffffffffffffffff1673ffffffffffffffffffffffffffffffffffffffff1681526020019081526020016000205490508181101561082d578381836040517fe450d38c00000000000000000000000000000000000000000000000000000000815260040161082493929190610fa2565b60405180910390fd5b818103600360008673ffffffffffffffffffffffffffffffffffffffff1673ffffffffffffffffffffffffffffffffffffffff16815260200190815260200160002081905550505b600073ffffffffffffffffffffffffffffffffffffffff168273ffffffffffffffffffffffffffffffffffffffff16036108be578060026000828254039250508190555061090c565b80600360008473ffffffffffffffffffffffffffffffffffffffff1673ffffffffffffffffffffffffffffffffffffffff168152602001908152602001600020600082825401925050819055505b8173ffffffffffffffffffffffffffffffffffffffff168373ffffffffffffffffffffffffffffffffffffffff167fddf252ad1be2c89b69c2b068fc378daa952ba7f163c4a11628f55a4df523b3ef836040516109699190610e21565b60405180910390a3505050565b600073ffffffffffffffffffffffffffffffffffffffff168273ffffffffffffffffffffffffffffffffffffffff16036109e85760006040517fec442f050000000000000000000000000000000000000000000000000000000081526004016109df9190610fd9565b60405180910390fd5b6109f46000838361074e565b5050565b600073ffffffffffffffffffffffffffffffffffffffff168273ffffffffffffffffffffffffffffffffffffffff1603610a6a5760006040517f96c6fd1e000000000000000000000000000000000000000000000000000000008152600401610a619190610fd9565b60405180910390fd5b610a768260008361074e565b5050565b600073ffffffffffffffffffffffffffffffffffffffff168473ffffffffffffffffffffffffffffffffffffffff1603610aec5760006040517fe602df05000000000000000000000000000000000000000000000000000000008152600401610ae39190610fd9565b60405180910390fd5b600073ffffffffffffffffffffffffffffffffffffffff168373ffffffffffffffffffffffffffffffffffffffff1603610b5e5760006040517f94280d62000000000000000000000000000000000000000000000000000000008152600401610b559190610fd9565b60405180910390fd5b81600460008673ffffffffffffffffffffffffffffffffffffffff1673ffffffffffffffffffffffffffffffffffffffff16815260200190815260200160002060008573ffffffffffffffffffffffffffffffffffffffff1673ffffffffffffffffffffffffffffffffffffffff168152602001908152602001600020819055508015610c4b578273ffffffffffffffffffffffffffffffffffffffff168473ffffffffffffffffffffffffffffffffffffffff167f8c5be1e5ebec7d5bd14f71427d1e84f3dd0314c0f7b2291e5b200ac8c7c3b92584604051610c429190610e21565b60405180910390a35b50505050565b600081519050919050565b600082825260208201905092915050565b60005b83811015610c8b578082015181840152602081019050610c70565b60008484015250505050565b6000601f19601f8301169050919050565b6000610cb382610c51565b610cbd8185610c5c565b9350610ccd818560208601610c6d565b610cd681610c97565b840191505092915050565b60006020820190508181036000830152610cfb8184610ca8565b905092915050565b600080fd5b600073ffffffffffffffffffffffffffffffffffffffff82169050919050565b6000610d3382610d08565b9050919050565b610d4381610d28565b8114610d4e57600080fd5b50565b600081359050610d6081610d3a565b92915050565b6000819050919050565b610d7981610d66565b8114610d8457600080fd5b50565b600081359050610d9681610d70565b92915050565b60008060408385031215610db357610db2610d03565b5b6000610dc185828601610d51565b9250506020610dd285828601610d87565b9150509250929050565b60008115159050919050565b610df181610ddc565b82525050565b6000602082019050610e0c6000830184610de8565b92915050565b610e1b81610d66565b82525050565b6000602082019050610e366000830184610e12565b92915050565b600080600060608486031215610e5557610e54610d03565b5b6000610e6386828701610d51565b9350506020610e7486828701610d51565b9250506040610e8586828701610d87565b9150509250925092565b600060ff82169050919050565b610ea581610e8f565b82525050565b6000602082019050610ec06000830184610e9c565b92915050565b600060208284031215610edc57610edb610d03565b5b6000610eea84828501610d51565b91505092915050565b60008060408385031215610f0a57610f09610d03565b5b6000610f1885828601610d51565b9250506020610f2985828601610d51565b9150509250929050565b7f4e487b7100000000000000000000000000000000000000000000000000000000600052602260045260246000fd5b60006002820490506001821680610f7a57607f821691505b602082108103610f8d57610f8c610f33565b5b50919050565b610f9c81610d28565b82525050565b6000606082019050610fb76000830186610f93565b610fc46020830185610e12565b610fd16040830184610e12565b949350505050565b6000602082019050610fee6000830184610f93565b92915050565b7f4e487b7100000000000000000000000000000000000000000000000000000000600052601160045260246000fd5b600061102e82610d66565b915061103983610d66565b925082820190508082111561105157611050610ff4565b5b9291505056fea264697066735822122081c4005d28bc30e9d9e4976383724000afdea4edc45fdcd553b690cfdfc5570664736f6c634300081c0033",
  "linkReferences": {},
  "deployedLinkReferences": {}
}